{
  "contractName": "EmployeeDetails",
  "abi": [
    {
      "constant": false,
      "inputs": [
        {
          "internalType": "int256",
          "name": "empid",
          "type": "int256"
        },
        {
          "internalType": "string",
          "name": "name",
          "type": "string"
        },
        {
          "internalType": "string",
          "name": "department",
          "type": "string"
        },
        {
          "internalType": "string",
          "name": "designation",
          "type": "string"
        }
      ],
      "name": "addEmployee",
      "outputs": [],
      "payable": false,
      "stateMutability": "nonpayable",
      "type": "function"
    },
    {
      "constant": true,
      "inputs": [
        {
          "internalType": "int256",
          "name": "empid",
          "type": "int256"
        }
      ],
      "name": "getEmployee",
      "outputs": [
        {
          "internalType": "string",
          "name": "",
          "type": "string"
        },
        {
          "internalType": "string",
          "name": "",
          "type": "string"
        },
        {
          "internalType": "string",
          "name": "",
          "type": "string"
        }
      ],
      "payable": false,
      "stateMutability": "view",
      "type": "function"
    }
  ],
  "bytecode": "0x608060405234801561001057600080fd5b5061089b806100206000396000f3fe608060405234801561001057600080fd5b50600436106100365760003560e01c806321bbba5d1461003b578063412b3cfc146101ba575b600080fd5b6100676004803603602081101561005157600080fd5b81019080803590602001909291905050506103ad565b60405180806020018060200180602001848103845287818151815260200191508051906020019080838360005b838110156100af578082015181840152602081019050610094565b50505050905090810190601f1680156100dc5780820380516001836020036101000a031916815260200191505b50848103835286818151815260200191508051906020019080838360005b838110156101155780820151818401526020810190506100fa565b50505050905090810190601f1680156101425780820380516001836020036101000a031916815260200191505b50848103825285818151815260200191508051906020019080838360005b8381101561017b578082015181840152602081019050610160565b50505050905090810190601f1680156101a85780820380516001836020036101000a031916815260200191505b50965050505050505060405180910390f35b6103ab600480360360808110156101d057600080fd5b8101908080359060200190929190803590602001906401000000008111156101f757600080fd5b82018360208201111561020957600080fd5b8035906020019184600183028401116401000000008311171561022b57600080fd5b91908080601f016020809104026020016040519081016040528093929190818152602001838380828437600081840152601f19601f8201169050808301925050505050505091929192908035906020019064010000000081111561028e57600080fd5b8201836020820111156102a057600080fd5b803590602001918460018302840111640100000000831117156102c257600080fd5b91908080601f016020809104026020016040519081016040528093929190818152602001838380828437600081840152601f19601f8201169050808301925050505050505091929192908035906020019064010000000081111561032557600080fd5b82018360208201111561033757600080fd5b8035906020019184600183028401116401000000008311171561035957600080fd5b91908080601f016020809104026020016040519081016040528093929190818152602001838380828437600081840152601f19601f8201169050808301925050505050505091929192905050506106d5565b005b606080606060008090505b600080549050811015610624576103cd610799565b600082815481106103da57fe5b906000526020600020906004020160405180608001604052908160008201548152602001600182018054600181600116156101000203166002900480601f0160208091040260200160405190810160405280929190818152602001828054600181600116156101000203166002900480156104965780601f1061046b57610100808354040283529160200191610496565b820191906000526020600020905b81548152906001019060200180831161047957829003601f168201915b50505050508152602001600282018054600181600116156101000203166002900480601f0160208091040260200160405190810160405280929190818152602001828054600181600116156101000203166002900480156105385780601f1061050d57610100808354040283529160200191610538565b820191906000526020600020905b81548152906001019060200180831161051b57829003601f168201915b50505050508152602001600382018054600181600116156101000203166002900480601f0160208091040260200160405190810160405280929190818152602001828054600181600116156101000203166002900480156105da5780601f106105af576101008083540402835291602001916105da565b820191906000526020600020905b8154815290600101906020018083116105bd57829003601f168201915b505050505081525050905085816000015114156106165780602001518160400151826060015182925081915080905094509450945050506106ce565b5080806001019150506103b8565b6040518060400160405280600981526020017f4e6f7420466f756e6400000000000000000000000000000000000000000000008152506040518060400160405280600981526020017f4e6f7420466f756e6400000000000000000000000000000000000000000000008152506040518060400160405280600981526020017f4e6f7420466f756e640000000000000000000000000000000000000000000000815250935093509350505b9193909250565b6106dd610799565b6040518060800160405280868152602001858152602001848152602001838152509050600081908060018154018082558091505090600182039060005260206000209060040201600090919290919091506000820151816000015560208201518160010190805190602001906107549291906107c1565b5060408201518160020190805190602001906107719291906107c1565b50606082015181600301908051906020019061078e9291906107c1565b505050505050505050565b6040518060800160405280600081526020016060815260200160608152602001606081525090565b828054600181600116156101000203166002900490600052602060002090601f016020900481019282601f1061080257805160ff1916838001178555610830565b82800160010185558215610830579182015b8281111561082f578251825591602001919060010190610814565b5b50905061083d9190610841565b5090565b61086391905b8082111561085f576000816000905550600101610847565b5090565b9056fea265627a7a7231582006eaddfc6987dbfbb8f314cbbb688d6737e6f0c6970abb4017cda8ae0968918564736f6c63430005100032",
  "source": "// SPDX-License-Identifier: MIT\npragma solidity >=0.4.21 <0.7.0;\n\n// Creating a Smart Contract \ncontract EmployeeDetails { \n\n// Structure of employee \nstruct Employee{ \n\t\n\t// State variables \n\tint empid; \n\tstring name; \n\tstring department; \n\tstring designation; \n} \n\nEmployee []emps; \n\n// Function to add \n// employee details \nfunction addEmployee( \n\tint empid, string memory name, \n\tstring memory department, \n\tstring memory designation \n) public{ \n\tEmployee memory e \n\t\t=Employee(empid, \n\t\t\t\tname, \n\t\t\t\tdepartment, \n\t\t\t\tdesignation); \n\temps.push(e); \n} \n\n// Function to get \n// details of employee \nfunction getEmployee( \n\tint empid \n) public view returns( \n\tstring memory, \n\tstring memory, \n\tstring memory){ \n\tuint i; \n\tfor(i=0;i<emps.length;i++) \n\t{ \n\t\tEmployee memory e \n\t\t\t=emps[i]; \n\t\t\n\t\t// Looks for a matching \n\t\t// employee id \n\t\tif(e.empid==empid) \n\t\t{ \n\t\t\t\treturn(e.name, \n\t\t\t\t\te.department, \n\t\t\t\t\te.designation); \n\t\t} \n\t} \n\t\n\t// If provided employee \n\t// id is not present \n\t// it returns Not \n\t// Found \n\treturn(\"Not Found\", \n\t\t\t\"Not Found\", \n\t\t\t\"Not Found\"); \n} \n}\n",
  "sourcePath": "/Users/bcas/project3_test/truffle_lease_employees/contracts/EmployeeDetails.sol",
  "compiler": {
    "name": "solc",
    "version": "0.5.16+commit.9c3226ce.Emscripten.clang"
  },
  "schemaVersion": "3.3.2",
  "updatedAt": "2020-12-08T18:35:29.360Z",
  "networkType": "ethereum",
  "devdoc": {
    "methods": {}
  },
  "userdoc": {
    "methods": {}
  }
}